{
	"_format": "hh-sol-artifact-1",
	"contractName": "AMM",
	"sourceName": "contracts/AMM.sol",
	"abi": [
		{
			"inputs": [
				{
					"internalType": "contract IERC20",
					"name": "tokenX",
					"type": "address"
				},
				{
					"internalType": "contract IERC20",
					"name": "tokenY",
					"type": "address"
				}
			],
			"stateMutability": "nonpayable",
			"type": "constructor"
		},
		{
			"inputs": [],
			"name": "PRECISION",
			"outputs": [
				{
					"internalType": "uint256",
					"name": "",
					"type": "uint256"
				}
			],
			"stateMutability": "view",
			"type": "function"
		},
		{
			"inputs": [
				{
					"internalType": "contract IERC20",
					"name": "inToken",
					"type": "address"
				},
				{
					"internalType": "uint256",
					"name": "amountIn",
					"type": "uint256"
				}
			],
			"name": "getEquivalentToken",
			"outputs": [
				{
					"internalType": "uint256",
					"name": "",
					"type": "uint256"
				}
			],
			"stateMutability": "view",
			"type": "function"
		},
		{
			"inputs": [
				{
					"internalType": "contract IERC20",
					"name": "token",
					"type": "address"
				},
				{
					"internalType": "uint256",
					"name": "_share",
					"type": "uint256"
				}
			],
			"name": "getWithdrawEstimate",
			"outputs": [
				{
					"internalType": "uint256",
					"name": "",
					"type": "uint256"
				}
			],
			"stateMutability": "view",
			"type": "function"
		},
		{
			"inputs": [
				{
					"internalType": "contract IERC20",
					"name": "tokenX",
					"type": "address"
				},
				{
					"internalType": "uint256",
					"name": "amountX",
					"type": "uint256"
				},
				{
					"internalType": "contract IERC20",
					"name": "tokenY",
					"type": "address"
				},
				{
					"internalType": "uint256",
					"name": "amountY",
					"type": "uint256"
				}
			],
			"name": "provide",
			"outputs": [
				{
					"internalType": "uint256",
					"name": "",
					"type": "uint256"
				}
			],
			"stateMutability": "nonpayable",
			"type": "function"
		},
		{
			"inputs": [
				{
					"internalType": "address",
					"name": "",
					"type": "address"
				}
			],
			"name": "share",
			"outputs": [
				{
					"internalType": "uint256",
					"name": "",
					"type": "uint256"
				}
			],
			"stateMutability": "view",
			"type": "function"
		},
		{
			"inputs": [
				{
					"internalType": "contract IERC20",
					"name": "",
					"type": "address"
				}
			],
			"name": "totalAmount",
			"outputs": [
				{
					"internalType": "uint256",
					"name": "",
					"type": "uint256"
				}
			],
			"stateMutability": "view",
			"type": "function"
		},
		{
			"inputs": [],
			"name": "totalShare",
			"outputs": [
				{
					"internalType": "uint256",
					"name": "",
					"type": "uint256"
				}
			],
			"stateMutability": "view",
			"type": "function"
		},
		{
			"inputs": [
				{
					"internalType": "uint256",
					"name": "_share",
					"type": "uint256"
				}
			],
			"name": "withdraw",
			"outputs": [
				{
					"internalType": "uint256",
					"name": "",
					"type": "uint256"
				},
				{
					"internalType": "uint256",
					"name": "",
					"type": "uint256"
				}
			],
			"stateMutability": "nonpayable",
			"type": "function"
		}
	],
	"bytecode": "0x60806040523480156200001157600080fd5b5060405162001c4e38038062001c4e83398181016040528101906200003791906200013e565b816000806101000a81548173ffffffffffffffffffffffffffffffffffffffff021916908373ffffffffffffffffffffffffffffffffffffffff16021790555080600160006101000a81548173ffffffffffffffffffffffffffffffffffffffff021916908373ffffffffffffffffffffffffffffffffffffffff160217905550505062000185565b600080fd5b600073ffffffffffffffffffffffffffffffffffffffff82169050919050565b6000620000f282620000c5565b9050919050565b60006200010682620000e5565b9050919050565b6200011881620000f9565b81146200012457600080fd5b50565b60008151905062000138816200010d565b92915050565b60008060408385031215620001585762000157620000c0565b5b6000620001688582860162000127565b92505060206200017b8582860162000127565b9150509250929050565b611ab980620001956000396000f3fe608060405234801561001057600080fd5b50600436106100885760003560e01c806387b292f91161005b57806387b292f91461013c578063a37230ae1461016c578063aaf5eb681461019c578063d72b9da2146101ba57610088565b8063026c42071461008d5780631877bb5c146100ab5780632e1a7d4d146100db5780633279081a1461010c575b600080fd5b6100956101ea565b6040516100a291906111e8565b60405180910390f35b6100c560048036038101906100c09190611266565b6101f0565b6040516100d291906111e8565b60405180910390f35b6100f560048036038101906100f091906112bf565b610208565b6040516101039291906112ec565b60405180910390f35b61012660048036038101906101219190611353565b61061e565b60405161013391906111e8565b60405180910390f35b610156600480360381019061015191906113ba565b610c72565b60405161016391906111e8565b60405180910390f35b610186600480360381019061018191906113ba565b610e45565b60405161019391906111e8565b60405180910390f35b6101a461101e565b6040516101b191906111e8565b60405180910390f35b6101d460048036038101906101cf91906113fa565b611025565b6040516101e191906111e8565b60405180910390f35b60025481565b60036020528060005260406000206000915090505481565b600080600060025411610250576040517f08c379a000000000000000000000000000000000000000000000000000000000815260040161024790611484565b60405180910390fd5b60008311610293576040517f08c379a000000000000000000000000000000000000000000000000000000000815260040161028a906114f0565b60405180910390fd5b600360003373ffffffffffffffffffffffffffffffffffffffff1673ffffffffffffffffffffffffffffffffffffffff16815260200190815260200160002054831115610315576040517f08c379a000000000000000000000000000000000000000000000000000000000815260040161030c9061155c565b60405180910390fd5b600061034160008054906101000a900473ffffffffffffffffffffffffffffffffffffffff1685610c72565b90506000610371600160009054906101000a900473ffffffffffffffffffffffffffffffffffffffff1686610c72565b905084600360003373ffffffffffffffffffffffffffffffffffffffff1673ffffffffffffffffffffffffffffffffffffffff16815260200190815260200160002060008282546103c291906115ab565b9250508190555084600260008282546103db91906115ab565b9250508190555081600460008060009054906101000a900473ffffffffffffffffffffffffffffffffffffffff1673ffffffffffffffffffffffffffffffffffffffff1673ffffffffffffffffffffffffffffffffffffffff168152602001908152602001600020600082825461045291906115ab565b925050819055508060046000600160009054906101000a900473ffffffffffffffffffffffffffffffffffffffff1673ffffffffffffffffffffffffffffffffffffffff1673ffffffffffffffffffffffffffffffffffffffff16815260200190815260200160002060008282546104ca91906115ab565b9250508190555060008054906101000a900473ffffffffffffffffffffffffffffffffffffffff1673ffffffffffffffffffffffffffffffffffffffff1663a9059cbb33846040518363ffffffff1660e01b815260040161052c9291906115ee565b6020604051808303816000875af115801561054b573d6000803e3d6000fd5b505050506040513d601f19601f8201168201806040525081019061056f919061164f565b50600160009054906101000a900473ffffffffffffffffffffffffffffffffffffffff1673ffffffffffffffffffffffffffffffffffffffff1663a9059cbb33836040518363ffffffff1660e01b81526004016105cd9291906115ee565b6020604051808303816000875af11580156105ec573d6000803e3d6000fd5b505050506040513d601f19601f82011682018060405250810190610610919061164f565b508181935093505050915091565b6000848360008054906101000a900473ffffffffffffffffffffffffffffffffffffffff1673ffffffffffffffffffffffffffffffffffffffff168273ffffffffffffffffffffffffffffffffffffffff1614806106c95750600160009054906101000a900473ffffffffffffffffffffffffffffffffffffffff1673ffffffffffffffffffffffffffffffffffffffff168173ffffffffffffffffffffffffffffffffffffffff16145b610708576040517f08c379a00000000000000000000000000000000000000000000000000000000081526004016106ff906116c8565b60405180910390fd5b60008054906101000a900473ffffffffffffffffffffffffffffffffffffffff1673ffffffffffffffffffffffffffffffffffffffff168173ffffffffffffffffffffffffffffffffffffffff1614806107af5750600160009054906101000a900473ffffffffffffffffffffffffffffffffffffffff1673ffffffffffffffffffffffffffffffffffffffff168173ffffffffffffffffffffffffffffffffffffffff16145b6107ee576040517f08c379a00000000000000000000000000000000000000000000000000000000081526004016107e5906116c8565b60405180910390fd5b8073ffffffffffffffffffffffffffffffffffffffff168273ffffffffffffffffffffffffffffffffffffffff160361085c576040517f08c379a000000000000000000000000000000000000000000000000000000000815260040161085390611734565b60405180910390fd5b6000861161089f576040517f08c379a0000000000000000000000000000000000000000000000000000000008152600401610896906117a0565b60405180910390fd5b600084116108e2576040517f08c379a00000000000000000000000000000000000000000000000000000000081526004016108d9906117a0565b60405180910390fd5b6000806002540361090457620f424060646108fd91906117c0565b9050610a04565b6000600460008a73ffffffffffffffffffffffffffffffffffffffff1673ffffffffffffffffffffffffffffffffffffffff168152602001908152602001600020548860025461095491906117c0565b61095e9190611831565b90506000600460008973ffffffffffffffffffffffffffffffffffffffff1673ffffffffffffffffffffffffffffffffffffffff16815260200190815260200160002054876002546109b091906117c0565b6109ba9190611831565b90508082146109fe576040517f08c379a00000000000000000000000000000000000000000000000000000000081526004016109f5906118d4565b60405180910390fd5b81925050505b60008111610a47576040517f08c379a0000000000000000000000000000000000000000000000000000000008152600401610a3e90611966565b60405180910390fd5b8773ffffffffffffffffffffffffffffffffffffffff166323b872dd33308a6040518463ffffffff1660e01b8152600401610a8493929190611986565b6020604051808303816000875af1158015610aa3573d6000803e3d6000fd5b505050506040513d601f19601f82011682018060405250810190610ac7919061164f565b508573ffffffffffffffffffffffffffffffffffffffff166323b872dd3330886040518463ffffffff1660e01b8152600401610b0593929190611986565b6020604051808303816000875af1158015610b24573d6000803e3d6000fd5b505050506040513d601f19601f82011682018060405250810190610b48919061164f565b5086600460008a73ffffffffffffffffffffffffffffffffffffffff1673ffffffffffffffffffffffffffffffffffffffff1681526020019081526020016000206000828254610b9891906119bd565b9250508190555084600460008873ffffffffffffffffffffffffffffffffffffffff1673ffffffffffffffffffffffffffffffffffffffff1681526020019081526020016000206000828254610bee91906119bd565b925050819055508060026000828254610c0791906119bd565b9250508190555080600360003373ffffffffffffffffffffffffffffffffffffffff1673ffffffffffffffffffffffffffffffffffffffff1681526020019081526020016000206000828254610c5d91906119bd565b92505081905550809350505050949350505050565b60008060025411610cb8576040517f08c379a0000000000000000000000000000000000000000000000000000000008152600401610caf90611484565b60405180910390fd5b8260008054906101000a900473ffffffffffffffffffffffffffffffffffffffff1673ffffffffffffffffffffffffffffffffffffffff168173ffffffffffffffffffffffffffffffffffffffff161480610d605750600160009054906101000a900473ffffffffffffffffffffffffffffffffffffffff1673ffffffffffffffffffffffffffffffffffffffff168173ffffffffffffffffffffffffffffffffffffffff16145b610d9f576040517f08c379a0000000000000000000000000000000000000000000000000000000008152600401610d96906116c8565b60405180910390fd5b600254831115610de4576040517f08c379a0000000000000000000000000000000000000000000000000000000008152600401610ddb90611a63565b60405180910390fd5b600254600460008673ffffffffffffffffffffffffffffffffffffffff1673ffffffffffffffffffffffffffffffffffffffff1681526020019081526020016000205484610e3291906117c0565b610e3c9190611831565b91505092915050565b60008060025411610e8b576040517f08c379a0000000000000000000000000000000000000000000000000000000008152600401610e8290611484565b60405180910390fd5b8260008054906101000a900473ffffffffffffffffffffffffffffffffffffffff1673ffffffffffffffffffffffffffffffffffffffff168173ffffffffffffffffffffffffffffffffffffffff161480610f335750600160009054906101000a900473ffffffffffffffffffffffffffffffffffffffff1673ffffffffffffffffffffffffffffffffffffffff168173ffffffffffffffffffffffffffffffffffffffff16145b610f72576040517f08c379a0000000000000000000000000000000000000000000000000000000008152600401610f69906116c8565b60405180910390fd5b6000610f7d8561103d565b9050600460008673ffffffffffffffffffffffffffffffffffffffff1673ffffffffffffffffffffffffffffffffffffffff1681526020019081526020016000205484600460008473ffffffffffffffffffffffffffffffffffffffff1673ffffffffffffffffffffffffffffffffffffffff1681526020019081526020016000205461100a91906117c0565b6110149190611831565b9250505092915050565b620f424081565b60046020528060005260406000206000915090505481565b60008160008054906101000a900473ffffffffffffffffffffffffffffffffffffffff1673ffffffffffffffffffffffffffffffffffffffff168173ffffffffffffffffffffffffffffffffffffffff1614806110e75750600160009054906101000a900473ffffffffffffffffffffffffffffffffffffffff1673ffffffffffffffffffffffffffffffffffffffff168173ffffffffffffffffffffffffffffffffffffffff16145b611126576040517f08c379a000000000000000000000000000000000000000000000000000000000815260040161111d906116c8565b60405180910390fd5b60008054906101000a900473ffffffffffffffffffffffffffffffffffffffff1673ffffffffffffffffffffffffffffffffffffffff168373ffffffffffffffffffffffffffffffffffffffff16036111a357600160009054906101000a900473ffffffffffffffffffffffffffffffffffffffff1691506111c9565b600160009054906101000a900473ffffffffffffffffffffffffffffffffffffffff1691505b50919050565b6000819050919050565b6111e2816111cf565b82525050565b60006020820190506111fd60008301846111d9565b92915050565b600080fd5b600073ffffffffffffffffffffffffffffffffffffffff82169050919050565b600061123382611208565b9050919050565b61124381611228565b811461124e57600080fd5b50565b6000813590506112608161123a565b92915050565b60006020828403121561127c5761127b611203565b5b600061128a84828501611251565b91505092915050565b61129c816111cf565b81146112a757600080fd5b50565b6000813590506112b981611293565b92915050565b6000602082840312156112d5576112d4611203565b5b60006112e3848285016112aa565b91505092915050565b600060408201905061130160008301856111d9565b61130e60208301846111d9565b9392505050565b600061132082611228565b9050919050565b61133081611315565b811461133b57600080fd5b50565b60008135905061134d81611327565b92915050565b6000806000806080858703121561136d5761136c611203565b5b600061137b8782880161133e565b945050602061138c878288016112aa565b935050604061139d8782880161133e565b92505060606113ae878288016112aa565b91505092959194509250565b600080604083850312156113d1576113d0611203565b5b60006113df8582860161133e565b92505060206113f0858286016112aa565b9150509250929050565b6000602082840312156114105761140f611203565b5b600061141e8482850161133e565b91505092915050565b600082825260208201905092915050565b7f5a65726f204c6971756964697479000000000000000000000000000000000000600082015250565b600061146e600e83611427565b915061147982611438565b602082019050919050565b6000602082019050818103600083015261149d81611461565b9050919050565b7f73686172652063616e6e6f74206265207a65726f210000000000000000000000600082015250565b60006114da601583611427565b91506114e5826114a4565b602082019050919050565b60006020820190508181036000830152611509816114cd565b9050919050565b7f496e73756666696369656e742073686172650000000000000000000000000000600082015250565b6000611546601283611427565b915061155182611510565b602082019050919050565b6000602082019050818103600083015261157581611539565b9050919050565b7f4e487b7100000000000000000000000000000000000000000000000000000000600052601160045260246000fd5b60006115b6826111cf565b91506115c1836111cf565b92508282039050818111156115d9576115d861157c565b5b92915050565b6115e881611228565b82525050565b600060408201905061160360008301856115df565b61161060208301846111d9565b9392505050565b60008115159050919050565b61162c81611617565b811461163757600080fd5b50565b60008151905061164981611623565b92915050565b60006020828403121561166557611664611203565b5b60006116738482850161163a565b91505092915050565b7f546f6b656e206973206e6f7420696e2074686520706f6f6c0000000000000000600082015250565b60006116b2601883611427565b91506116bd8261167c565b602082019050919050565b600060208201905081810360008301526116e1816116a5565b9050919050565b7f546f6b656e732073686f756c6420626520646966666572656e74210000000000600082015250565b600061171e601b83611427565b9150611729826116e8565b602082019050919050565b6000602082019050818103600083015261174d81611711565b9050919050565b7f416d6f756e742063616e6e6f74206265207a65726f2100000000000000000000600082015250565b600061178a601683611427565b915061179582611754565b602082019050919050565b600060208201905081810360008301526117b98161177d565b9050919050565b60006117cb826111cf565b91506117d6836111cf565b92508282026117e4816111cf565b915082820484148315176117fb576117fa61157c565b5b5092915050565b7f4e487b7100000000000000000000000000000000000000000000000000000000600052601260045260246000fd5b600061183c826111cf565b9150611847836111cf565b92508261185757611856611802565b5b828204905092915050565b7f4571756976616c656e742076616c7565206f6620746f6b656e73206e6f74207060008201527f726f76696465642e2e2e00000000000000000000000000000000000000000000602082015250565b60006118be602a83611427565b91506118c982611862565b604082019050919050565b600060208201905081810360008301526118ed816118b1565b9050919050565b7f41737365742076616c7565206c657373207468616e207468726573686f6c642060008201527f666f7220636f6e747269627574696f6e21000000000000000000000000000000602082015250565b6000611950603183611427565b915061195b826118f4565b604082019050919050565b6000602082019050818103600083015261197f81611943565b9050919050565b600060608201905061199b60008301866115df565b6119a860208301856115df565b6119b560408301846111d9565b949350505050565b60006119c8826111cf565b91506119d3836111cf565b92508282019050808211156119eb576119ea61157c565b5b92915050565b7f53686172652073686f756c64206265206c657373207468616e20746f74616c5360008201527f6861726500000000000000000000000000000000000000000000000000000000602082015250565b6000611a4d602483611427565b9150611a58826119f1565b604082019050919050565b60006020820190508181036000830152611a7c81611a40565b905091905056fea2646970667358221220466a811d3b7e0ca04fe8c7166968d4d36af9d7b6bef8a27c52818018571006e564736f6c63430008110033",
	"linkReferences": {},
	"deployedLinkReferences": {}
}